:100000000084FF1F310500003305000033050000A8
:100010003305000033050000330500003305000000
:100020003305000033050000330500007D46000065
:10003000330500003305000033050000A14F000028
:1000400033050000330500003305000033050000D0
:1000500033050000330500003305000033050000C0
:1000600033050000330500003305000033050000B0
:1000700033050000330500003305000033050000A0
:100080003305000033050000330500003305000090
:100090003305000033050000330500003305000080
:1000A0003305000033050000330500003305000070
:1000B0003305000033050000330500003305000060
:1000C0003305000033050000330500003305000050
:1000D0003305000033050000330500003305000040
:1000E0003305000033050000330500003305000030
:1000F0003305000033050000330500003305000020
:10010000330500003305000033050000330500000F
:1001100033050000330500003305000033050000FF
:1001200033050000330500003305000033050000EF
:1001300033050000330500003305000033050000DF
:1001400033050000330500003305000033050000CF
:1001500033050000330500003305000033050000BF
:10016000330500003555000033050000330500005D
:10017000330500003305000033050000330500009F
:10018000330500003305000033050000330500008F
:10019000330500003305000033050000330500007F
:1001A000330500003305000033050000330500006F
:1001B000330500003305000033050000330500005F
:10040000FFFFFFFFFFFFFFFFFFFFFFFF7EFFFFFF7D
:080410003D0400001904000086
:1004180010B5054C237833B9044B13B10448AFF336
:1004280000800123237010BD008EFF1F0000000014
:100438000862000008B5034B1BB103490348AFF33A
:10044800008008BD00000000048EFF1F0862000045
:1004580072B6274880F30888264880F3098826481A
:100468004EF60851CEF200010860022080F314888D
:10047800BFF36F8F03F044FB03F07CF94FF0553066
:100488001E491B4A91423CBF41F8040BFAE71C493C
:10049800184A91423CBF41F8040BFAE719491A4A35
:1004A8001A4B9A423EBF51F8040B42F8040BF8E786
:1004B80000201749174A91423CBF41F8040BFAE75C
:1004C80003F022FB03F01DFB134C144DAC4203DA7E
:1004D80054F8041B8847F9E703F05AF9104C114DFA
:1004E800AC4203DA54F8041B8847F9E703F00ABB67
:1004F8000084FF1F008CFF1F000000000080FF1F0A
:100508000084FF1F08620000008CFF1F248CFF1F5F
:10051800008EFF1FF49AFF1F10040000140400004F
:10052800140400001804000092E700F000F8FEE749
:100538002DE9F04FC1F80CD0C3689D46BDE8F08F97
:1005480003F0B2FB002383F311882846A04700205C
:1005580003F00CFF03F096FB03F0E0FD03F0A4FBAF
:1005680000DFFEE753B94AB9002908BF00281CBFBD
:100578004FF0FF314FF0FF3000F06CB9ADF1080CCF
:100588006DE904CE00F006F8DDF804E0DDE90223A9
:1005980004B070472DE9F047089E0D4604468E4684
:1005A800002B40F082808A42174646D9B2FA82F27E
:1005B8004AB1C2F1200105FA02F320FA01F197408D
:1005C80041EA030E94404FEA1748230CBEFBF8FC9F
:1005D800B9B208FB1CEE43EA0E430CFB01F098424B
:1005E8000AD9FB180CF1FF3580F01681984240F2C9
:1005F8001381ACF1020C3B441B1AA4B2B3FBF8F014
:1006080008FB103344EA034400FB01F1A14209D975
:100618003C1900F1FF3380F00181A14240F2FE80D5
:1006280002383C44641A40EA0C4000211EB1D44010
:100638000023C6E90043BDE8F08702B9FFDEB2FA3D
:1006480082F2002A4FD1CB1B4FEA174E1FFA87F8C8
:100658000121B3FBFEFC250C0EFB1C3345EA0345C8
:1006680008FB0CF3AB4207D97D190CF1FF3002D21D
:10067800AB4200F2E7808446ED1AA3B2B5FBFEF068
:100688000EFB105543EA054408FB00F8A04507D9BE
:100698003C1900F1FF3302D2A04500F2D78018467A
:1006A800A4EB080440EA0C40C0E78B4208D9002EAE
:1006B80000F0AF800021C6E900050846BDE8F087D4
:1006C800B3FA83F100294BD1AB4202D3824200F244
:1006D800B780841A65EB030301209E46002EAAD03A
:1006E800C6E9004EA7E7C2F1200C01FA02F39740D1
:1006F80020FA0CF04FEA174E21FA0CFC1843BCFB09
:10070800FEF1050C0EFB11CC1FFA87F845EA0C45E3
:1007180001FB08F3AB4204FA02F409D97D1901F18F
:10072800FF3C80F08B80AB4240F2888002393D4428
:10073800EB1A85B2B3FBFEF00EFB103345EA034516
:1007480000FB08F3AB4207D97D1900F1FF3C71D2D9
:10075800AB426FD902383D44EB1A40EA014178E7D1
:10076800C1F1200C8B4022FA0CF71F4320FA0CF43D
:1007780005FA01F34FEA174E25FA0CF51C43230C32
:10078800B5FBFEF91FFA87F80EFB195543EA054534
:1007980009FB08FAAA4502FA01F200FA01F308D99E
:1007A8007D1909F1FF3047D2AA4545D9A9F10209B7
:1007B8003D44A5EB0A05A4B2B5FBFEF00EFB1055AF
:1007C80044EA054400FB08F8A04507D93C1900F1A4
:1007D800FF352DD2A0452BD902383C4440EA0940C8
:1007E800A4EB0804A0FB02894C45C6464D4619D324
:1007F80016D05EB1B3EB0E0264EB050404FA0CFCF0
:10080800CA404CEA0202CC40C6E900240021BDE8F7
:10081800F087314630460EE7AC46EDE6184601E76C
:100828004345E6D2B8EB020E69EB07050138E0E76D
:100838002846D3E760468FE78146BAE7614677E7FF
:1008480008464BE7ACF1020C3D4415E702383C443E
:1008580026E700BF704700BF01207047012070479E
:1008680008B5FFF7FBFF08BD704708B5FFF7FCFFA9
:1008780008BD000013B502AB03E903000F4B1B785A
:10088800B3B99DF80230009873B16AB101F07AFCEF
:1008980004460146009801F031FC0099204602B058
:1008A800BDE8104000F078B801F04CFC0446F4E7CD
:1008B800009801F067FC0099F1E700BF7C8EFF1FEC
:1008C80003460A4600689988FFF7D4BF10B500218F
:1008D8000446FFF7F5FF2146FFF7C7FF10BD08B52F
:1008E80001F08AFD08B901F00BFEBDE8084000F0F0
:1008F800F2B900F0F5B9704708B5FFF7FCFF08BD7D
:100908000120704708B5FFF7FBFF08BD10B5044686
:10091800FFF7F2FF2046FFF7F5FF10BD704708B557
:1009280001F0AFF8FFF7FAFFFA2003F028FDBDE861
:10093800084001F053BF38B501210446FFF7C0FF56
:1009480021460546FFF78CFF08B9002038BD21462F
:10095800284600F08DFB0028F7D02146284600F0F5
:10096800CFFB0028F1D02146284600F0A3FC002840
:10097800EBD0A37833B1B5F5B84F07D045F6DE43D1
:100988009D4206D02046FFF767FFDFE7FFF7C7FF66
:10099800DBE701F0B5FDD8E76C224243C1F307233A
:1009A800122000FB032353FA81F1034B33F81100A3
:1009B80082B002B0704700BFA458000013B5ADF86C
:1009C80004100199FFF7E8FF00F0AEF8B0F5A44F66
:1009D80004463AD2B0F5A24F80F08A80FF2816D894
:1009E800EF287DD8A7280BD8A4286CD8012804D0D4
:1009F800031F9BB2A12B28BF0024204602B010BDC4
:100A0800BE2865D9A0F1E0039BB2082BF3E7B0F547
:100A1800A04F0AD2B0F5804F65D2A0F580739BB283
:100A2800B3F5F85F0FD30024E7E7C0F38103C0F301
:100A380001125B0100F00300012443EA0223844011
:100A48001C4344F40C44A4B2D7E7B0F5AC4F1AD217
:100A5800B0F5AA4FC0B251D2B4F5A84F0ED2830850
:100A6800B4F5A64F00F003004FF0010404FA00F0BB
:100A780040EA4314E5D344F40A44E4E74AF2F404B0
:100A880044EA0024B9E7B0F5B44F0CD2B0F5B24F40
:100A98003CD2A0F5B0439BB2FF2BC4D84AF2F00079
:100AA80040EA0424CFE7A0F5C0439BB2B3F5005F4A
:100AB800B9D2C0F3042000F0B7F8030203F4F853E6
:100AC800E4B21C431FE0A0F1240444F48044BAE7D4
:100AD8005834144BE4B233F8144044F488448CE797
:100AE80040F4A044AFE7C0F30B0444F4204484E787
:100AF800C4B24AF2F10343EA04247EE700F094F812
:100B0800040204F4F85444F4005476E700F00F00AB
:100B180000F08AF8C4F3031440EA042444F41044AF
:100B280091E700BF7C590000E7284DD8DF2807D897
:100B3800312861D00ED8292857D02A2863D0704789
:100B4800A0F1E003072B3FD8DFE803F0123E21268F
:100B5800303E3A3F392804D0822802D035283DD08B
:100B68007047304B1B7813F0030F18BFE020704715
:100B78002C4A1378D9074DD4527812F0010F23D09C
:100B880013F0100F08BFE32018BF00207047254B53
:100B98001B7813F0040FF2E7224A137859073BD465
:100BA8005278D2073AD413F0100FEDE71D4B5A785C
:100BB800910709D51B7813F0100F08BFE720E3E76A
:100BC800184B1B781A07F6D47047164A137819077A
:100BD80026D452789207E6D5E420F5E7114B1B7826
:100BE80013F0200F18BF292070470E4B1B7813F005
:100BF800200F18BF352070470A4B1B7813F0400FA1
:100C080018BF2A207047074B1B7813F0400F18BFF6
:100C18003120704739207047E2207047E020704744
:100C2800E6207047508FFF1F294B1A78510707D5C8
:100C380000F01801082927D100F0F70040F004005F
:100C4800110707D500F01801182926D100F0E70090
:100C580040F014005B78D90707D500F0180108297F
:100C680024D100F0F70040F00100990707D500F003
:100C78001803182B23D100F0E70040F01100D30629
:100C880048BF00F0E700704700F01401042904BFD2
:100C980000F0FB0040F00800D2E700F0140114292E
:100CA80004BF00F0EB0040F01800D3E700F011019A
:100CB800012904BF00F0FE0040F00800D5E700F06D
:100CC8001103112B04BF00F0EE0040F01800D6E726
:100CD800508FFF1F704708B5FFF7FCFF08BD70472E
:100CE80008B5FFF7FCFF08BD014B53F8200070471B
:100CF8001C8EFF1F7047012003F041BB38B5184D0B
:100D0800062455F8040B0322C0F30751013C20F0D8
:100D18007F6004F06BF914F0FF04F2D1114D122436
:100D280055F8040B0322C0F30751013C20F07F6003
:100D380004F05CF914F0FF04F2D10B490B4A0623C6
:100D4800013B13F0FF0341F8044B42F8044BF7D181
:100D5800062000F06FF8BDE83840FFF7C0BD00BFBF
:100D6800F4590000AC590000348EFF1F1C8EFF1F81
:100D78002DE9F04F2B4CDFF8B89085B006270026F8
:100D88004FF0010A59F8045B2368019325F07F6846
:100D9800C5F30755002306222946404644F8043B7C
:100DA80004F024F90AFA05F3C8F80830FFF7A3FF9E
:100DB8001D4A4FF0000B52F8040BC0F3075120F006
:100DC8007F60CDE9022204F00BF954F8041C029A62
:100DD80028BB0AFA0BF00BF1010B0143BBF1120F10
:100DE80044F8041CE7D103222946404604F0FEF8E3
:100DF80054F8043C019A013F934218BF46F001069B
:100E080017F0FF07BED1094906483346062200F00D
:100E180013F8FFF76EFD304605B0BDE8F08F0020EF
:100E2800D9E700BF348EFF1FAC5900001C8EFF1F8E
:100E3800F459000070470000F8B5104C06460F46FC
:100E480015462BB10123237001F0BCFC0C4B188014
:100E580023782BB10A4B188801F0B9FC05280AD869
:100E6800F8BD56F8232047F8232001339D42F8DCCB
:100E780000232370F4E70023F8E700BF4C8EFF1F20
:100E88004E8EFF1F024A5378DB07FCD5704700BF20
:100E9800000002407FB5164B6A4603F1100615465E
:100EA80018685968144603C40833B3422246F7D178
:100EB800104C6378990708D40E4944F621634A78A0
:100EC800D20713D4013BFAD110E08023E371392310
:100ED800E3720323A37272B645F0010320469847D4
:100EE80062B6237813F07003E6D0237004B070BDA7
:100EF80074580000000002401F2810B5044609D8A5
:100F0800054B5B78DB0701D4FFF7C4FF04F1A0545D
:100F1800207810BD0020FCE7000002401E2810B514
:100F2800044609D8054B5B78DB0701D4FFF7B2FF0D
:100F380004F1A054208810BD0020FCE70000024006
:100F48001F2838B504460D460FD8084B5B78DB07D9
:100F580001D4FFF79FFF04F1A0542378AB4204D0DB
:100F68002570BDE83840FFF78DBF38BD000002404E
:100F7800FFF7E6BF38B505460C46C9B2FFF7E0FFF4
:100F8800210A681CBDE83840FFF7DABF38B50546C6
:100F98000C46C9B2FFF7D4FFC4F30721681CFFF75A
:100FA800CFFFC4F30741A81CFFF7CAFF210EE81CB6
:100FB800BDE83840FFF7C4BFF8B5154682781F462C
:100FC8000C46294B92B1197001F0FCFB274B188095
:100FD80004F12003DBB2072B44D804F007040120F6
:100FE800A040C0B2BDE8F84000F01BBB1E788E429E
:100FF8002ED11E4B188801F0EAFBC72828D8AE422C
:1010080005F1200415D006F12003DBB2072B06D822
:1010180006F007060120B040C0B200F00BFBE3B2B7
:10102800072B06D805F0070301209840C0B200F04E
:10103800F8FA3846E4B200F0E5FA072C12D805F0C1
:1010480007050120A840BDE8F840C0B200F0F2BA98
:1010580004F12003DBB2072B04D804F007040120B5
:10106800A040F0E7F8BD00BF508EFF1F528EFF1F53
:1010780008B545F6F6420346934208460FD845F6AA
:10108800F242934211D845F6D84293421DD045F614
:10109800D94293422DD045F6D74293420ED080785C
:1010A80050B3164B00221A700EE0A3F5B943743BF7
:1010B800022B0ED8DFE803F011151900E1222623D0
:1010C8001146FFF779FF002008BD2723E522E52117
:1010D800F7E72623E122E021F3E72723E522E421AD
:1010E800EFE72623E122E221EBE72723E522E621A9
:1010F800E7E728230122EAE70120E5E7508EFF1FF2
:1011080038B505468878002800F0CF8045F61543A5
:101118009D4216D845F601439D4217D901F084F93E
:10112800634C45F615439D42208021D845F601437E
:101138009D420CD8208801F083F900F0A2FC002021
:1011480004E0A5F5B9437A3B082BE7D938BDA5F5E6
:10115800B845033D122D1AD8DFE805F01E222633C4
:10116800373B3F455155595D696D71757B978300D4
:10117800A5F5B9457A3DABB2082BDBD8082DD9D8EF
:10118800DFE805F0161B4D51376B7A8D91002378F7
:1011980043F001032370CDE7237843F00203F9E716
:1011A800237843F00403F5E7237843F00803F1E7D5
:1011B800637843F001036370BCE7637843F002038C
:1011C800F9E7237843F01003E4E7237843F020039A
:1011D800E0E7237843F04003DCE700F052FC237893
:1011E80043F08003D6E7237823F00C0343F00C0385
:1011F800D0E7637823F0030343F00303DBE72378A6
:101208006FF30003C6E723786FF34103C2E723783F
:101218006FF38203BEE723786FF3C303BAE76378FB
:101228006FF30003C7E763786FF34103C3E72378DD
:101238006FF30413AEE723786FF34513AAE7237817
:101248006FF38613A6E700F01CFC23786FF3C7132F
:10125800A0E7237823F00C039CE7637823F00303CB
:10126800A9E72378C3F3800282F00102D2B262F3C5
:10127800820362F3C3038DE76378DA4302F0010265
:1012880062F3000362F3410395E700F0FAFB237869
:10129800C3F3C01282F0010262F3C7137AE7012098
:1012A80001F030F946E70020FAE701204EE700BFD9
:1012B800508FFF1F45F61643984210B50C461BD1B8
:1012C80000F0E0FFA2780D4B72B100F0AA000028F0
:1012D80015BF01220022352029201A7000F0A2FF34
:1012E80001F02CF8002010BD1B78002B14BF35200E
:1012F800292000F09FFFF3E70120F4E7548EFF1F39
:10130800014B1860704700BF588EFF1F024B1868CA
:1013180008B1036818477047588EFF1F084B1B68B1
:101328006BB1084A127842B1074A92F90020002AA4
:10133800BFBF02784270052202705B681847704789
:10134800588EFF1F0C8CFF1F508FFF1F034A126817
:101358001AB102210170936818477047588EFF1F11
:10136800054A1188814205D0044B10801B680BB1D7
:10137800DB681847704700BF5E8EFF1F588EFF1F3F
:10138800054A1188814205D0044B10801B680BB1B7
:101398001B691847704700BF5C8EFF1F588EFF1FE0
:1013A8007047704708B5FFF7FCFF08BD704708B5E0
:1013B800FFF7FCFF08BD08B5FFF7F2FFFFF7F2FFE4
:1013C80008BD0120704708B5FFF7FBFF08BD08B549
:1013D80001F0D0F9FFF792FC01F042FAFFF7E7FFBE
:1013E80008BD00002DE9F347FFF7C2FCFFF7EBFF4C
:1013F80000284ED0DFF8CCA0DFF8CC900024574668
:101408005FFA84F84046FFF76FFC5AF8045B8542A0
:1014180006463BD099F800309B0701D5FFF76AFCD8
:1014280085EA0602002301252A42D9B229D02E4294
:1014380014BF012300238DF800108DF802308DF8B9
:10144800018001F0BFF940F0010002ABADF80400E3
:1014580013E9030000F03AF857F824305D4047F8E4
:101468002450174C01F08AFCFFF750FF2378834281
:1014780022D0FFF74BFF207002B0BDE8F047FFF71E
:1014880045BA0133122B4FEA4505CDD10134062C5C
:10149800B6D14FF6FF73ADF8003000238DF8023057
:1014A80001F090F940F00100ADF8040002AB13E937
:1014B800030000F00BF8D4E702B0BDE8F08700BFE6
:1014C800608EFF1F648EFF1F438FFF1F84B06B4623
:1014D80083E803000022ADF80E2093E8030004AB74
:1014E8000290ADF80C1013E9030004B000F018BD29
:1014F800008800F067BE000010B50446002845D0FB
:10150800031FDBB2A02B15D801F01EFE00283DD129
:101518001F4B2146186801F017F820B1204600F04B
:1015280089FE00F00BFF204600F07CFEBDE810406D
:1015380000F004BF00F12003DBB2072B07D800F04E
:1015480007040120A040C0B200F0A2FEEEE700F1BF
:101558005B03DBB2022B05D82438BDE8104080B20B
:10156800FFF7FEBE00F15803DBB2162B06D8094A76
:10157800BDE8104032F81300FFF702BFEF2805D985
:1015880001F0F6FABDE8104001F0EABB10BD00BF5B
:10159800008CFF1F0C5A000008B590B3021FD2B28E
:1015A800A02A05D800F046FEBDE8084000F0C6BEF7
:1015B80000F12002D2B2072A07D800F00703012061
:1015C8009840C0B200F06CFEEEE700F15B02D2B2C8
:1015D800022A04D8BDE808400020FFF7C1BE00F188
:1015E8005802D2B2162A04D8BDE808400020FFF7F6
:1015F800C7BEEF2805D901F02FFBBDE8084001F070
:10160800AFBB08BD10B50446FFF776FF392C0CBFF9
:101618005020012002F0B3FE2046BDE81040FFF73D
:10162800BBBF08B528B100F033FEBDE8084000F0A4
:1016380085BE08BD08B528B100F032FEBDE80840F7
:1016480000F07CBE08BD00002DE9F047867985785A
:1016580080460C4636090DB100F040FE00F008FE49
:10166800074668B1FDB104F12003DBB2072B1AD994
:10167800022000F0A9FE00F0FBFD80F00107FFB298
:10168800C4F30339B9F10B0F3BD8DFE819F00E00AA
:101698000E005E005E00A800BF003A003A00F300AA
:1016A8004F015F015F010027EAE7C4F30723C4F392
:1016B800032613F0F00F18BF3601E4B295B156B106
:1016C80004F12003DBB2072B304600D93CB900F007
:1016D800DFFD00F033FE2046FFF70EFF11E000F0BB
:1016E800EDFDF6E72046FFF757FF56B104F120035A
:1016F800DBB2072B304600D924BB00F0D1FD00F047
:101708001DFEA9F10809B9F1030F03D8FFF7FEFD83
:10171800FFF7FCF8002F00F06D8100F0A1FD10F03C
:10172800010040F0678188F8020000F091FD00F0A8
:10173800ADFC404600F073F900F08AFDBDE8F047C3
:1017480000F0AEBC00F0C2FDD9E7C4F3072303F0F4
:10175800F003C4F3032A202BE4B218BF4FEA0A1A95
:1017680064B1012C28D07DB34EB398F80630D90760
:10177800B1D56FF3071388F8063020E095B13EB96C
:1017880000F0B8FD40EA0A00C0B2FFF74AFFB8E728
:10179800012EF5D100F0AEFD40EA0A00C0B200F01B
:1017A800B5FDAEE72EB900F0BDFD5046FFF742FF8C
:1017B800A7E7012EA5D0F6E71DB1052EA1D8504602
:1017C800E3E7042E9DD8F0E7002EEED0392C02D1A5
:1017D800502002F0D4FD2046FFF7DEFE91E714F416
:1017E800406FC4F3812307D0012B8AD165B1C4F3BC
:1017F8000900FFF7C5FD84E725B1C4F30900FFF729
:10180800AFFD7EE72846FAE72846F2E7E0B2CDB119
:10181800F5280DD0F62810D0F42804D1764A13689C
:1018280043F00103136001F0A3F901F099FA68E7A6
:10183800714A136843F00203F4E76F4A136843F0F0
:101848000403EFE7F5280BD0F6280ED0F42804D1CE
:10185800694A136823F00103136001F0FDF9E4E716
:10186800654A136823F00203F6E7634A136823F016
:101878000403F1E714F4407F27D1002D7FF441AF32
:10188800C4F34210E2064FEA800048BF0F25C0B2F9
:1018980048BF854004F00F03C4F3812448BFED43DB
:1018A8008340022C45EA030009D0032C0AD0012CFE
:1018B80002D000F0C1FB24E700F0B6FB21E700F0FE
:1018C800C3FB1EE700F0ADFB1BE7C4F3012215B311
:1018D80002F00103002B3FF414AFC4F34210800060
:1018E800C2B204F00F0000FA02F114F010001CBF9D
:1018F8000F2303FA02F0C4F3812414BFC343034641
:10190800022C43EA01000BD0032C0CD0012C04D08C
:1019180000F0E2FBF5E65308DCE700F0D5FBF0E663
:1019280000F0E2FBEDE600F09DFBEAE6E6B2C4F368
:10193800032425B1204600F0A9FB304625E73046B0
:10194800FFF778FE204600F0ABFBDAE65FFA84FA90
:10195800AAF1F003042B39D8DFE803F0030E151AB7
:1019680023003DB1042E3FF6CCAEC4F3042000F0B2
:10197800A1FBC6E6052EF6E7C4F30420002DE2D04D
:1019880000F084FBBDE6C4F30420002DF8D0DAE7AC
:1019980025B1C4F3042000F074FBB2E600F06EFB3E
:1019A800AFE64DB1C4F30424204600F06FFB0321D9
:1019B800204600F0EFFCA4E6012000F005FD012E12
:1019C8007FF69FAE022000F0FFFC9AE62DB10EB123
:1019D800504681E6C4F30420D2E746B1BAF1390F84
:1019E8000CBF5020012002F0CAFC5046F4E6C4F3B4
:1019F8000420A8E7BDE8F087808EFF1F38B501886E
:101A08000446807800F0EAFB054600F075FB00F01C
:101A180007FB29462046BDE83840FFF715BE13B539
:101A280083880288ADF80420044673B1BDF8042009
:101A38004FF6FF739A4208D0FEF77DFF28B1204683
:101A4800FFF7DCFF2046FEF741FF02B010BD08B5E6
:101A580000F044FC00F048FC00F070FC01F06EFA65
:101A680001F07EF90020FFF77BFCBDE8084000206C
:101A7800FFF786BC08B500F0E5FBBDE80840FFF7B6
:101A8800E6BF08B500F014FCBDE80840FFF7F2BF58
:101A98000346C3F30332023AC0B20D2A1CD8DFE86A
:101AA80002F007071B1B141B1B1B0707181B1B181F
:101AB800F02813D004D8E7288CBF002001207047F5
:101AC800F42814BF002001207047E72806D9F12820
:101AD800F7E7C3F3C0207047002070470120704724
:101AE80007B5ADF80400019800F06CFB03B05DF891
:101AF80004EBFFF7CDBF82B002AB03E9030002B0ED
:101B0800704782B002AB03E9030002B070470000DF
:101B180070B5094B094E1C78094D3378A34200D1A2
:101B280070BD05EBC40355F8340059680134FFF75C
:101B3800E8FF04F00704F0E7CD8EFF1FCC8EFF1FEF
:101B48008C8EFF1F024B18685968FFF7DABF00BF79
:101B5800848EFF1F214BF7B59A7912F0F00F0AD146
:101B68009A7842B11E4A1F4E12781F4D4FF6FF77E2
:101B78003178914201D103B0F0BD98881988ADF849
:101B8800041038B389B2B94224D005EBC20493F8E3
:101B980001C061788C451DD193F800C015F832104A
:101BA8008C4517D1A178A9B9A188091A89B2C72982
:101BB80010D899790948012262F307119971A3791C
:101BC80062F30713A371FFF72AFF03B0BDE8F040E3
:101BD800FFF79EBF013202F00702C9E7848EFF1F9C
:101BE800CD8EFF1FCC8EFF1F8C8EFF1F2DE9FF4768
:101BF800C74F0446B988006800903888237862780F
:101C080094F80280B4F804A0ADF80800EC463D460C
:101C1800002900F0D48080B24FF6FF7E704500F0B6
:101C2800CE80BE78002E00F0CA80AAEB0101B879F8
:101C380089B2C72900F0F00900F293803988ADF81D
:101C48000810B9F1000F4BD17145C1461BD08DF872
:101C580000308DF80120BDF800C08C4513D1B8F1D3
:101C6800000F40F01C81012363F30710B871FFF7E0
:101C780069FF3846FFF7D3FEBB79A37100263046CB
:101C880004B0BDE8F087BAF1000F40F00C81B8F15C
:101C9800000FF3D0AB7943F00103AB71EEE700EB33
:101CA800C10595F801C0944506D110F831C09C458E
:101CB80002D1AD78002DE1D1013101F0070106E133
:101CC80010F4706F02D0002B00F020812033DBB2BB
:101CD800072B40F21B812046FFF7A1FEB14615E114
:101CE800714515D08DF800308DF80120BDF800C081
:101CF8008C450DD1B8F1000F0AD1A0712046FFF72D
:101D08008EFE23683B6063687B60FFF71BFFB6E7C6
:101D18008DF800308DF801200098FFF7E1FEE0B162
:101D2800B8F1000F19D0AB791F2B0CD92A88ADF860
:101D3800082002A800228DF80A20ADF80CA08DF822
:101D48000E30FFF76CFE23682B6063686B60FFF74B
:101D580001FFFFF7F7FE012691E72046FFF75FFE38
:101D6800F9E7B9F1000F15D18DF800308DF8012091
:101D78008DF80280ADF804A09CE80300FFF7BBFED5
:101D88003846FFF74CFEC7F80090C7F80490FFF7F5
:101D9800D9FEBBE08DF800308DF801203988BDF8F8
:101DA80000C08C45B4D1B8F1000FB1D1A071204664
:101DB800FFF735FEC7F80080C7F804805FE728887A
:101DC800ADF80800002951D086B24FF6FF70864260
:101DD8004CD0AE78002E49D1AAEB010189B2C729AF
:101DE80035D84646002EB8D08DF800308DF8012041
:101DF8002988BDF800308B421CD1AB79DA0714D49E
:101E080013F0F00211D0F02AA37106D0DBB2C3F3AD
:101E18000312013262F30713A3712046FFF7FFFD97
:101E280023682B6063686B606FE723682B606368C7
:101E38006B6024E70098FFF753FE002883D1AB7945
:101E4800204643F00103AB71FFF7E9FD17E78DF872
:101E58000280ADF804A08DF800308DF801209CE8D0
:101E68000300FFF748FE2E606E604EE7B8F1000FE2
:101E78003FF473AF8DF800308DF801200098FFF71C
:101E88002FFE064600283FF468AF23682B6063687E
:101E98001F486B60FFF72CFBFFF75CFE35E7BAF1D4
:101EA800000F3FF4F7AE8DF808308DF80920BDF823
:101EB80008004FF6FF7188423FF4E9AEB8F1000F11
:101EC8007FF4E8AE13481449077809781348B942F3
:101ED8007FF4E5AE8DF800308DF80120009800F011
:101EE80071F9C0F30332012AC3B27FF6E9AE0E32AC
:101EF80002F00F02012A3FF6EEAE10F4706F3FF4C5
:101F0800E5AEA27912F0F00F7FF4E0AE4E46B6E6E9
:101F1800848EFF1FCC8EFF1FCD8EFF1F8C8EFF1F60
:101F2800F0B587B06D4685E803002846FFF75EFEEA
:101F38002E4F2F4E044688B1BDF80430BDF800205E
:101F4800ADF8102043B192B24FF6FF739A4203D016
:101F580095E80300FFF7D5FD264C41E095E803001E
:101F680004AB83E80300BDF80410BDF81020ADF8F9
:101F78000C200029F0D01FFA82FC4FF6FF7294451E
:101F88003D783078E8D06A1C02F0070282420DD012
:101F9800184CADF8141003CB04EBC50C44F835000D
:101FA8003A70CCF80410FFF7B3FDD5E7FFF769FDE9
:101FB800114B3C7034701C605C60CDE704EBC000D2
:101FC800FFF714FE80B1337804EBC30254F83300F2
:101FD8005168FFF796FD3378013303F00703337038
:101FE80030783B788342E9D107B0F0BDCC8EFF1F33
:101FF800CD8EFF1F8C8EFF1F848EFF1F704708B584
:10200800FFF7FCFF08BD000008B5FFF7F8FF034B1A
:102018001860BDE80840FFF71ABD00BFD08EFF1F4B
:102028007047FFF7F1BF0000024B1B681843FFF72A
:10203800EBBF00BFD08EFF1F024B1B681840FFF795
:10204800E3BF00BFD08EFF1F024B1B685840FFF74D
:10205800DBBF00BFD08EFF1F704708B5FFF7FCFF3E
:1020680008BD000008B5FFF7F8FF034B1860BDE88E
:102078000840FFF7ECBC00BFD48EFF1F0020FFF71D
:10208800F1BF012303FA00F0FFF7ECBF034A012375
:10209800834010681843FFF7E5BF00BFD48EFF1FC9
:1020A800034A01238340106820EA0300FFF7DABFE0
:1020B800D48EFF1F034A0123834010685840FFF75E
:1020C800D1BF00BFD48EFF1F024B1B681843FFF718
:1020D800C9BF00BFD48EFF1F024B1B681840FFF713
:1020E800C1BF00BFD48EFF1F024B1B685840FFF7CB
:1020F800B9BF00BFD48EFF1F70470000C0F307238D
:1021080003EBC30337B500EB430000F007030122DC
:102118009A40C0F3C4000A4B00EB8000D2B21844C6
:102128000024057821FA04F343F300036B401340BD
:1021380001346B40052C00F8013BF2D103B030BDEF
:10214800D88EFF1FC0F3072303EBC30313B500EBBF
:1021580043000B4900F00704C0F3C40000EB800003
:1021680000220144104611F8013BE34003F001034B
:10217800934001321843052AC0B2F4D102B010BD11
:10218800D88EFF1F0D4B73B51E680D4BADF80400BC
:102198001B681F241E4326FA04F3DB07E5B205D4A7
:1021A800013CF8D20025284602B070BD01992846A6
:1021B800FEF704FC80B20128F2D0F4E7D48EFF1FAA
:1021C800D08EFF1F07B5ADF804000198FFF7DAFFBE
:1021D800019903B05DF804EBFEF7F0BB13B5104BA3
:1021E800ADF804101B782BB1019802B0BDE810407F
:1021F800FFF7E8BF70B10198FFF7C4FF0446014636
:102208000198FFF77BFF0199204602B0BDE8104016
:10221800FEF7D4BB0198FFF795FF0446F3E700BF2C
:102228007C8EFF1F024B0146186800F0F9B900BF09
:10223800008CFF1F024B0146186800F009BA00BF66
:10224800008CFF1F014B186800F01ABA008CFF1FA2
:10225800024B93F90000C0F3C70070473F8FFF1F80
:10226800024B187800F00700704700BF3F8FFF1F30
:10227800034B187810F0070018BF0120704700BF03
:102288003F8FFF1F014B1878704700BF418FFF1F1A
:10229800024B1A7810431870704700BF418FFF1F18
:1022A800024A137823EA000313707047418FFF1F17
:1022B800014B00221A707047418FFF1F024B1A789A
:1022C80010431870704700BF428FFF1F024A1378EF
:1022D80023EA000313707047428FFF1F014B00224F
:1022E8001A707047428FFF1F014B00221A70704707
:1022F8003E8FFF1F014B1878704700BF408FFF1FAC
:10230800704708B5FFF7FCFF08BD000008B5044A90
:102318001178814202D01070FFF7F3FF08BD00BFAB
:10232800408FFF1F08B5044B1A781AB100201870A7
:10233800FFF7E7FF08BD00BF408FFF1F10B50D4B2B
:102348000D491B7809780D4C0B430D492068097815
:102358000B430C490370097831B10B43037000F04B
:10236800D5F808B1FFF7DEFF2068BDE81040FEF79A
:10237800D5BF00BF418FFF1F428FFF1F008CFF1F7B
:102388003E8FFF1F408FFF1F704708B5FFF7FCFF08
:1023980008BD000010B5064C41EAC0012170FFF7E6
:1023A80075FE94F90000C0F3C700FFF7EEFF10BDFB
:1023B8003F8FFF1F08B5034B00201870FFF7E5FF9C
:1023C80008BD00BF3F8FFF1F08B50A4A92F90030C9
:1023D80023EA000040B2107042070AD1DBB2834200
:1023E80007D0C0F3C700FFF75BFEBDE80840FFF762
:1023F800E1BF08BD3F8FFF1F08B50020FEF78EFD27
:102408004FF6EC63C31A5842584108BD0220FEF744
:1024180073BD01460220FEF7ABBD0320FEF76CBD7D
:1024280001460320FEF7A4BD10B50420FEF764FDA5
:1024380004462120FEF760FD44EA002080B210BD6A
:1024480010B5C1B204460420FEF792FD210A2120EE
:10245800BDE81040FEF78CBD01460F20FEF796BD83
:1024680001461320FEF792BD0020FFF7F9BF08B51B
:102478000020FFF7F1FFFFF7F7FF08BD10B54FF693
:10248800EC610020FEF776FD00210220FEF770FDCA
:10249800002103200024FEF76BFD184B2146042081
:1024A8001C60FEF765FD21462120FEF761FD2146EF
:1024B8000520FEF75DFD21460620FEF759FDFF21A8
:1024C8000720FEF755FD21460820FEF75FFD21464F
:1024D8000D20FEF74DFD21461820FEF757FD214639
:1024E8001720FEF745FD21461C20FEF74FFD21462B
:1024F8002020FEF73DFDFFF7BAFF10BDD08EFF1F6D
:10250800FFF7BCBF01460E20FEF732BD0C4B1B780F
:10251800821C63B10B4B93F90030002BACBF062330
:102528001E230020013BDBB2FF2B02D1704706239C
:10253800F7E712F8011B0029F4D00130C0B2F1E727
:102548000C8CFF1F508FFF1FF9B1124B1B78A3B1E2
:10255800114B93F90030002B0FDAEF294FEAD10223
:1025680013D81044012301F0070103FA01F183781D
:10257800194214BF012000207047831C083013F84B
:10258800012B8A4203D08342F9D1002070470120F1
:10259800704700BF0C8CFF1F508FFF1F30B54FF0E6
:1025A800FF32841C002314F8015B8D420ED0B2F177
:1025B800FF3F02D1002D08BF1A460133DDB2062DB8
:1025C8005BB2F0D1531C01D01044817030BD10B5FE
:1025D800831C0022083013F8014B8C4208BF03F813
:1025E800012C8342F7D110BDEF294FEAD10308D857
:1025F800184401F00701012303FA01F18378194314
:1026080081707047EF294FEAD10308D8184401F0C8
:10261800070101238B40817821EA0301817070470B
:1026280010B4094C247803460A463CB1074C94F987
:102638000040002C02DA10BCFFF7D6BF10BC1146D0
:102648001846FFF7ABBF00BF0C8CFF1F508FFF1F52
:1026580010B4094C247803460A463CB1074C94F957
:102668000040002C02DA10BCFFF7CCBF10BC1146AA
:102678001846FFF7ACBF00BF0C8CFF1F508FFF1F21
:10268800094A12780346023042B1084A92F90020FA
:10269800002A03DA1E22002103F0DCB80022C3F866
:1026A80002208280704700BF0C8CFF1F508FFF1FD5
:1026B800704708B5FFF7FCFF08BD08B5FFF7F9FF3D
:1026C800BDE80840112001F05ABE7047704710B5A8
:1026D800FFF7FBFFFEF74CFBFFF7F8FF0024E0B223
:1026E800FEF702FB18B90134062CF8D110BD012001
:1026F800FCE7704708B5FFF7FCFF08BD08B5FFF712
:10270800D7FDFFF7EBFDFFF79DFD00F017FC00205C
:10271800FEF726FE0020FEF733FEFFF7EBFF08BDAD
:1027280008B501F0C1FA084B1A689A4207D09B69AC
:1027380099689368994202D2044801F05BFA002331
:1027480083F3118808BD00BF1891FF1F3A5A000093
:1027580010B5202383F3118801F094FA034B9C6A87
:10276800FFF7DEFF024B1C6010BD00BF1891FF1F72
:10277800448FFF1FFFF7ECBF38B5202383F3118880
:1027880001F080FA0D4B9C6AFFF7CAFF0C4B1B68DF
:10279800E41A01344FF47A732CBF01220022A4FBFF
:1027A800034503FB025514F1FF304FF47A724FF0E2
:1027B800000345F1FF31FDF7D5FE38BD1891FF1F25
:1027C800448FFF1F08B5FFF7D7FF80B208BD10B5CB
:1027D8000446FFF7D1FF001B80B210BD08B5642086
:1027E80001F0CDFD00BE08BD024B1960024B186018
:1027F800704700BF488FFF1F4C8FFF1F2DE9F34123
:10280800002506465FFA85F84046FEF76DFA002473
:10281800074627FA04F2D207E3B20DD58DF8043043
:102828008DF8058001990020FEF7B6F8864203D19D
:10283800012002B0BDE8F0810134122CE9D1013544
:10284800062DDFD10020F4E710B504462C20FFF751
:10285800D5FF20B12046BDE81040FFF7CFBF10BD1F
:1028680010B5FFF7C9FD08B9FFF74AFE652404E073
:10287800FEF77EFA0A2001F082FD013C14F0FF0405
:10288800F6D12920FFF7E0FF002840F0FB802A203E
:10289800FFF7DAFF08B1FFF733FE0520FFF7D4FF93
:1028A80008B1FFF79BFFFFF7B1FD774C20700720B9
:1028B800FFF7CAFF68B11B20FFF7C6FF002800F02A
:1028C800BD802378C3F3400282F0010262F3410322
:1028D800237020786D4CFFF79CFDFFF7A5FD208045
:1028E800E020FFF7B1FF38B12378C3F3000282F08C
:1028F800010262F3000323703920FFF7A5FF38B106
:102908002378C3F3400282F0010262F3410323708B
:10291800E220FFF799FF38B12378C3F3800282F0F1
:10292800010262F382032370E620FFF78DFF38B1BE
:102938002378C3F3C00282F0010262F3C303237059
:10294800E320FFF781FF38B12378C3F3001282F048
:10295800010262F3041323703520FFF775FF38B1C5
:102968002378C3F3401282F0010262F34513237007
:102978003120FFF769FF38B12378C3F3801282F062
:10298800010262F3861323701120FFF75DFF38B14F
:102998002378C3F3C01282F0010262F3C7132370D5
:1029A8002088FFF74DFD2720FFF74EFF04461E2025
:1029B800FFF74AFF10B144F00204E4B21F20FFF70A
:1029C80043FF10B144F00404E4B22020FFF73CFFB9
:1029D80010B144F00804E4B22120FFF735FF10B12C
:1029E80044F01004E4B22220FFF72EFF10B144F0A7
:1029F8002004E4B22320FFF727FF10B144F040047D
:102A0800E4B22420FFF720FFB8B364F07F04E4B2F7
:102A18002046FFF705FD2046FFF703FB0F20FFF7D1
:102A280013FF10B10120FFF76DFD1520FFF70CFF14
:102A380040B3BDE810400020FFF764BD0E20FFF74B
:102A480003FF38B12378C3F3800282F0010262F3F6
:102A580082033DE71020FFF7F7FE237830B1C3F378
:102A6800C00282F0010262F3C30331E7C3F300023C
:102A780082F0010262F300032AE7002CC8D1FFF7B5
:102A8800CCFCC9E710BD00BF438FFF1F508FFF1F4D
:102A9800194B1B78D90709D5184B187800EB80001B
:102AA80080087F2824D828B3C0B270479A0705D574
:102AB800124B187800EB80004008F2E75B0704D55A
:102AC8000E4B187800EB8000EBE70D4B1B786BB1D1
:102AD8000C4A0A49127808789342F3D210FB03F0A3
:102AE80000EB8000B0FBF2F080B2DAE70520DBE70C
:102AF8007F207047012070475E8FFF1F068CFF1FE5
:102B08005F8FFF1F078CFF1F154B1B78D90705D553
:102B1800144B1878800800B3C0B270479A0703D5E1
:102B2800104B18784008F6E75B0705D50D4B187869
:102B38007F28F0D97F2070470B4B1B785BB10B4A7D
:102B4800084912780878934236BF10FB03F080B228
:102B5800B0FBF2F0ECE70120DEE70120704700BF90
:102B68005E8FFF1F0A8CFF1F5F8FFF1F0B8CFF1FDD
:102B7800F02808B505D1FFF78BFF4042344BD870D9
:102B880008BDF12802D1FFF783FFF7E7F22805D146
:102B9800FFF77EFF40422E4B9870F1E7F32802D1F1
:102BA800FFF776FFF7E7F92804D1FFF7ADFF284BC9
:102BB8001871E5E7FA2803D1FFF7A6FF4042F6E7C8
:102BC800FB2805D1FFF7A0FF4042214B5871D7E7FA
:102BD800FC2802D1FFF798FFF7E7F42805D11C4A33
:102BE800537843F001035370CAE7F52804D1184A13
:102BF800537843F00203F6E7F62804D1144A5378D1
:102C080043F00403EFE7F72804D1114A537843F05F
:102C18000803E8E7F82804D10D4A537843F0100375
:102C2800E1E7FD2805D10B4A137843F0010313703F
:102C3800A6E7FE2804D1074A137843F00203F6E713
:102C4800FF289DD1034A137843F00403EFE700BF40
:102C5800588FFF1F5E8FFF1F3E4BF02893F902200D
:102C680007D193F90310002901DA0021D9706AB15C
:102C78007047F12804D193F903100029F5DCF6E731
:102C8800F2280CD1002AF2DA00229A70DA7819793F
:102C98005B790A431A43EBD12F4B1A707047F3281C
:102CA80002D1002AF0DCE2E7F92806D193F90410F2
:102CB8000029DCDD00211971D9E7FA2804D193F93C
:102CC80004100029D3DAF5E7FB2806D193F905109B
:102CD8000029CCDA00215971C9E7FC2804D193F9FD
:102CE80005100029F6DCC2E7F42804D1597821F050
:102CF80001015970BBE7F52803D1597821F0020189
:102D0800F7E7F62803D1597821F00401F1E7F7280D
:102D180003D1597821F00801EBE7F82803D1597855
:102D280021F01001E5E7FD2805D10C48017821F0D4
:102D3800010101709BE7FE2804D10848017821F0C1
:102D48000201F6E7FF2892D10448017821F0040136
:102D5800EFE700BF588FFF1F5F8FFF1F5E8FFF1FBA
:102D680008B50448FEF7F2FAFFF72CFD024B18806D
:102D780008BD00BF588FFF1F528FFF1F2DE9F84F66
:102D8800654C94F9027094F9036094F800B094F8D3
:102D980001A094F9049094F9058057EA06030AD033
:102DA8005E4D2888FFF713FD5D490B78ABB15D4A8E
:102DB800127890421BDC2279637913430BD05A4D69
:102DC8002888FFF704FD564A1378002B54D057493A
:102DD800097888425ADCBDE8F88F554A127802EB28
:102DE8008202B0EB420FE6DD01330B7001E0FF2BEE
:102DF800FAD100232371637194F90230002B02DDAC
:102E0800FFF746FEA07094F90230002B03DAFFF7B3
:102E18003FFE4042A07094F90330002B02DDFFF71B
:102E280037FEE07094F90330002B03DAFFF730FE29
:102E38004042E07094F9022072B194F9031059B13C
:102E4800B5235A43121203FB01F308BF01221B12D8
:102E580008BF0123A270E370FFF782FF354B84F8A7
:102E680000B01B882B8084F801A0A770E67084F856
:102E7800049084F805809EE72F49097801EB8101C9
:102E8800B0EB410FA7DD0133137001E0FF2BFAD13E
:102E98000023A370E37094F90430002B02DDFFF7E0
:102EA80033FE207194F90430002B03DAFFF72CFE6F
:102EB8004042207194F90530002B02DDFFF724FE13
:102EC800607194F90530002B03DAFFF71DFE4042CC
:102ED800607194F9042072B194F9051059B1B523C1
:102EE8005A43121203FB01F308BF01221B1208BF49
:102EF800012322716371FFF733FF0E4B84F800B092
:102F08001B882B8084F801A0A770E67084F80490D1
:102F180084F805805FE700BF588FFF1F548FFF1F9D
:102F28005F8FFF1F058CFF1F568FFF1F098CFF1F28
:102F3800048CFF1F528FFF1F088CFF1F044A0023B9
:102F480013609380034A1370034A1370704700BFDD
:102F5800588FFF1F5F8FFF1F5E8FFF1F01380528E7
:102F680017D8DFE800F0030A0C0E1012094A13788C
:102F78001944FE290BDC11707047074AF7E7074A26
:102F8800F5E7074AF3E7074AF1E7074AEFE7FF23C0
:102F980013707047048CFF1F058CFF1F068CFF1FE2
:102FA800078CFF1F0A8CFF1F0B8CFF1F0138052899
:102FB80017D8DFE800F0030A0C0E1012094A13783C
:102FC8008B420CD9591A11707047074AF7E7074A1C
:102FD800F5E7074AF3E7074AF1E7074AEFE700236F
:102FE80013707047048CFF1F058CFF1F068CFF1F92
:102FF800078CFF1F0A8CFF1F0B8CFF1F431F10B588
:103008003E2B00F28B80DFE803F02D2436228989DD
:103018002289895789636F898989892289892289BF
:103028004689898787878787878787877B892D2030
:10303800898989898989898989897B898922898175
:1030480081818181818181817B00FFF759FA01208B
:1030580007E0334A137823F00F031370314B012034
:10306800187010BDFEF70DFD4FF47A7001F087F966
:10307800FFF7B4FBEBE72A4A1378C3F3000181F0AA
:10308800010161F300031370D9B2DB07DFD421F02B
:103098000E031370DBE722490B78C3F3400282F07A
:1030A800010262F341030B7013F0020FCFD01C4AE8
:1030B800137843F00103ECE719490B78C3F3800256
:1030C80082F0010262F382030B7013F0040FEDE744
:1030D80013490B78C3F3C00282F0010262F3C30301
:1030E8000B7013F0080FE1E7FEF7CBFC0E490B78E5
:1030F800C3F3C01282F0010262F3C7130B70A6E794
:103108000120FEF78EFFFEF7BCFCA0E73938C0B2FD
:10311800012404FA00F0F4E71D38F8E70020A0E7DE
:10312800438FFF1F608FFF1F508FFF1F00207047C6
:10313800002070471E38C0B209289ABF014B185C9E
:1031480000207047465A0000F8B54C4E3478012CE0
:103158000546374615D0022C36D0002C40F0888022
:10316800FFF790F8222840F086802846FFF7DEFF18
:1031780018B92846FFF742FF00E0012000F00100DF
:10318800F8BDFFF77FF82228284605D1FFF7CEFFC4
:103198000028EED02046F1E7FFF7CAFF40B9142D0A
:1031A8000FD007D80B2D03D0102DE9D1022333708F
:1031B8000120E5E7292D04D0A5F1380358425841EC
:1031C800DEE700203870DBE75228F1D84A280FD80C
:1031D800232823D81D2823D8072836D01428E7D138
:1031E800274B1A780120002AECD000221A70C7E772
:1031F8004B380728DCD801A353F820F04B320000E5
:10320800B9310000B93100004F320000B931000077
:10321800B93100003F320000333200002928DEE7D0
:10322800FFF788FF164B1870C2E70121144B187876
:10323800FFF794FEBCE70121114B1878FFF7B6FEA3
:10324800B6E70A21F2E70A21F6E70E4B1E221A70AA
:103258000D4B32221A700D4B0A221A700C4B142295
:103268001A700C4B08221A700B4B28221A709FE711
:103278000020307084E7204682E700BF608FFF1F80
:10328800618FFF1F048CFF1F058CFF1F068CFF1F1B
:10329800078CFF1F0A8CFF1F0B8CFF1F704708B598
:1032A80000F026FD002383F3118808BD38B5094CCA
:1032B800104622460D46002142F8041F40EA052028
:1032C800194600F099FA20606068002818BF204667
:1032D80038BD00BF648FFF1F08B500F0E5FC084B40
:1032E8001A689A4207D09B6999689368994202D2F2
:1032F800044800F07FFC002383F3118808BD00BF59
:103308001891FF1F505A000090F8DA10074A022956
:10331800137807D103F0FB03012B05D1044B527836
:103328001A707047024A1370704700BFBA8FFF1FA8
:10333800988FFF1F7047000070B504460D4600F0D7
:1033480019FD0648C3680BB100F072FD2B462146F3
:10335800034A0248BDE8704000F038BD848FFF1F63
:103368008133000008B5202383F3118800F0AEFCF8
:10337800BDE80840FFF793BFF8B50446202383F360
:10338800118800F0A3FC2378042B03D0BDE8F84093
:10339800FFF785BF154B1B78DB09F7D1144D2A7849
:1033A800002AF3D0134B1B78002BEFD023899B07FF
:1033B80005D4114A08230121204601F09DFA2E78F0
:1033C8004FF47A73A6FB036740F2E73030184FF0EA
:1033D80000014FF47A724FF0000347EB0101FDF74B
:1033E800C1F821468000FFF7A7FFCFE7508FFF1FE6
:1033F800808FFF1F0C8CFF1F998FFF1F022938B584
:1034080005460C4602D0052913D038BD202383F386
:10341800118800F05BFC2846084A012101F0DCF91C
:1034280021462846064A01F0D7F9BDE83840FFF79B
:1034380036BFBDE83840FFF761B900BF5C5A0000ED
:10344800805A0000F8B590F8D43003F07F02212AA2
:10345800044640F0818013F0800F90F8D50028D002
:1034680002281ED0032811D0012875D194F8D8302D
:1034780043B9494AC4F8C8202022C4F8CC20C4F86B
:10348800D030F8BD0023C4E93233F8E7B4F8D830B7
:10349800002B61D1414AC4F8C8200120C4F8CC00EF
:1034A800EDE73F4BC4F8C8300120C4F8CC00002336
:1034B800E5E70A2847D00B2810D009284CD194F802
:1034C800D830012B48D8374BC4F8C8300223C4F889
:1034D800CC30354BC4F8D0300120D2E7B4F8D8301E
:1034E8006BBB94F8D630002B2C4B14BF0121002164
:1034F80019702E4B1A7861F3C7121A701FD1284D14
:103508002B78E3B1202383F3118800F0DFFB2E78BA
:103518004FF47A73A6FB036740F2E73030184FF098
:1035280000014FF47A724FF0000347EB0101FDF7F9
:1035380019F821468000FFF7FFFEFFF7B0FE0023D1
:10354800C4E93233C6E7194A154D127894F8D730D2
:103558002B70D209F3D1D4E7B4F8D42040F28163B8
:103568009A4201D000208CE794F8D920616894F839
:10357800D8304D6894F8D71043EA0223204694F8CF
:10358800D620A8470028EDD04368C4F8C83003689F
:10359800C4F8CC3000239DE7998FFF1F0C8CFF1FC8
:1035A800808FFF1FBA8FFF1F11330000508FFF1F3E
:1035B800114A41F2340310B5D3585B0348BF02F5F2
:1035C8002C32044642BF92F8083103F0EF0382F828
:1035D800083140F2DC5000F0D2FE0849204601F0E4
:1035E800D1F8074A92F8083143F0100382F80831FD
:1035F800044B0022DA6010BD00700440A45A000099
:1036080000200740848FFF1F014B1878704700BFC8
:10361800988FFF1F70B52023044683F31188214D2E
:1036280000F030FB2B78042B2E4625D11E4A2B891F
:1036380092F90020002A23DA1C4A127802B35A07AA
:1036480010D4202322460221164801F055F9184BC0
:10365800204604F1200250F8041B43F8041B904252
:10366800F9D109E06B6958694FF0FF310C3000F06F
:1036780091FE2B78042BE4D0BDE87040FFF72CBEF8
:103688009B0703D4082322460121DDE733695869E3
:103698004FF0FF310C3000F07DFE3378042BEBD176
:1036A800F0E700BF9491FF1F508FFF1F0C8CFF1F86
:1036B800998FFF1F10B52023044683F3118800F06B
:1036C800E1FA0D4B1A78042A03D0BDE81040FFF741
:1036D80003BE1A89520707D55B6958690A210C305D
:1036E80000F058FE0130F0D003480623224602219C
:1036F80001F002F9E9E700BF9491FF1F13B52023F9
:10370800044683F3118800F0BDFA09480378042BB6
:1037180003D0FFF7E1FD02B010BD032301AA022187
:103728008DF80430ADF8054001F0E6F8F1E700BF88
:103738009491FF1F13B52023044683F3118800F0EA
:10374800A1FA09480378042B03D0FFF7C5FD02B09E
:1037580010BD8DF8043001AA03230221ADF80540FD
:1037680001F0CAF8F1E700BF9491FF1F7047704756
:103778007047704708B5FFF7FAFF01F06BFBFFF7DA
:10378800F7FF08BD08B501F067FBFFF7F2FF08BDBA
:1037980038B500F09FFF00F0DFF9FDF70CFE134885
:1037A800124CFFF705FF12490020FFF71DF83220E1
:1037B80000F0E5FDFDF70BFE0E48FDF7A1FD2546DF
:1037C8002378052B0AD0FDF70DFEF9E7FEF775FF04
:1037D800FEF77DFF10B1284601F0BAF82B78052BCB
:1037E800F4D0FEF7ABFDFFF7BBFAECE79491FF1FAF
:1037F80075370000108CFF1F10B5040A032C0FD07A
:1038080007D8012C21D0022C07D1144B3B20136080
:1038180010BD212C0DD0222C11D000200346F6E734
:10382800C0B20328F9D80E4B0E4953F82030085C73
:10383800EDE769B10129F0D10B4B0920E7E751B158
:103848000129EAD1094BBC20E1E7094B1220DEE748
:10385800084B0920DBE7084B4020D8E7C85A00008E
:10386800B45A0000C45A0000F35A00007F5B0000FD
:10387800035B0000DA5A0000155B0000024B034AA4
:103888001A60034A5A607047D08FFF1FF89AFF1FCB
:103898000080002070B50E460446154600F06AFA0E
:1038A80016B1731E334202D00B4800F0A3F90B4A3D
:1038B80011684819631E304474423344013820406B
:1038C8002340546803449C4203D3994201D81360AF
:1038D80070BD0020FCE700BF475C0000D08FFF1FD1
:1038E80070B5202304460D46164683F3118800F070
:1038F800C9F9324629462046FFF7CCFF044600F0B6
:10390800D3F9084B1A689A4207D09B69996893685B
:10391800994202D2044800F06DF9002383F311881C
:10392800204670BD1891FF1F3B5C00000448054B02
:1039380003600023C0E901330C3000F0E1BD00BF93
:10394800D88FFF1FE93800002DE9F843044608B175
:10395800430702D0284800F04DF954F8043C54F8C5
:10396800087CDFF89490073307F10408DB080C376C
:1039780044F8043C384600F023FEA4F10806454606
:10398800B54208D86B68013305EBC3039E4202D2E7
:10399800484600F02FF945452B6801D0B54228D29A
:1039A8000BB1B34225D944F8083C54F8043C2E60C6
:1039B80054F8082C013306EBC3018A4206D151683A
:1039C8000B4444F8043C136844F8083C69684A1CF2
:1039D80005EBC202964207D154F8043C01330B446C
:1039E8006B6054F8083C2B603846BDE8F84300F09B
:1039F800F5BD1D46C4E700BF655C000008B500F0D2
:103A080053F9084B1A689A4207D09B6999689368DA
:103A1800994202D2044800F0EDF8002383F311889C
:103A280008BD00BF1891FF1F705C0000F8B50E4676
:103A380015461F46044630B1032904D9032A02D982
:103A4800531E134202D0044800F0D4F80023C4E9FE
:103A58000036C4E90257F8BD7C5C000038B504465E
:103A68000D4600F087F924B11DB1A368013B1D4242
:103A780002D0034800F0BEF823682B60256038BDEB
:103A8800945C000038B504460D46202383F3118862
:103A980000F0F8F829462046FFF7E0FFBDE8384077
:103AA800FFF7ACBF0022FFF7F5BE000038B5124C97
:103AB800124D204600F024FD142104F11003601873
:103AC800236104222B46FFF7B1FF04F1240363624C
:103AD80004F12803A36204222B461C2104F12C00C4
:103AE800FFF7A4FF04F13C03E36304F140032364FC
:103AF80004F14403636438BDF48FFF1FAD3A00003E
:103B080070477047FEE700001149F0B5082000260D
:103B1800D1E901340A681D46043AAC4210D8E21CC7
:103B2800D21ADD1E22F00302AC4238BF0022134431
:103B3800CA689A4209D8013801F11001E8D1F0BDEC
:103B480052F8047F45F8047BE7E743F8046BF0E795
:103B5800A05C0000FEE7000038B51E4C002500F010
:103B680089F900F025F9C4E90C55FFF787FEFFF73E
:103B7800DDFEFFF79BFF1849802204F1380000F0B2
:103B880025FB164BC361012380F82030144B154ADE
:103B9800D968A06121F4E0610904090C0A431249BB
:103BA800DA60CA6842F08072CA6010490A6842F056
:103BB80001020A601022DA77202283F8222000F01E
:103BC80053F885F3118862B60948BDE8384000F01B
:103BD80051BB00BF1891FF1F505E00000084FF1FFB
:103BE80000ED00E00003FA05F0ED00E0001000E051
:103BF800285D000072B6014BD862FEE71891FF1FDE
:103C08002DE9F843164C00F0B5F8A26992F8233074
:103C180013B1013B82F8233000F0ACF8114EA36ACF
:103C2800E2690133B242A36207D09368013B936013
:103C38004FF02008E569AF680FB1BDE8F8832B683D
:103C4800D5F80C90EF605E60E36100F051F887F3FF
:103C580011882869C84788F3118800F037F8E9E720
:103C68001891FF1F3491FF1F044BD3E90C23134312
:103C780002D00348FFF7BEBF704700BF1891FF1F6F
:103C8800405D000010B5064CD4E90C1251EA02035D
:103C980002D00448FFF7AEFF0123636310BD00BFE5
:103CA8001891FF1F455D000010B5064C236B13B932
:103CB800636B002B02DC0448FFF79CFF002363635F
:103CC80010BD00BF1891FF1F4A5D000010B5064CDB
:103CD800236B002B01DD636B13B10448FFF78AFFE8
:103CE8000123636310BD00BF1891FF1F4F5D0000E3
:103CF80010B5064C236B002B02DD636B002B02DC36
:103D08000348FFF777FF0023636310BD1891FF1F77
:103D1800545D000010B5202383F31188074C236BF2
:103D2800002B01DB636B13B10548FFF763FF236BBF
:103D380001332363002383F3118810BD1891FF1FFB
:103D4800595D000010B5202383F31188074C236BBD
:103D5800002B01DD636B13B10548FFF74BFF236BA5
:103D6800013B2363002383F3118810BD1891FF1FC3
:103D78005E5D0000054B1A6B002A02DB5B6B002BB3
:103D880002DC0348FFF736BF704700BF1891FF1FDA
:103D9800635D0000044B1A6B12B95B6B002B02DCED
:103DA8000248FFF727BF70471891FF1F695D0000A1
:103DB800054B03F11C02C3E907224FF0FF325A6298
:103DC80000229A62704700BF1891FF1F2DE9F04149
:103DD80004460E4615461F46FFF7CCFF0CB105B149
:103DE80016B91148FFF706FFC4E903570F4FDFF86C
:103DF8003880FD69AB68B3420DD36B68636025609A
:103E08001C606C60A660A9684FF0FF33891BA9602D
:103E18007B62BDE8F081A54202D14046FFF7EAFE89
:103E2800AB682D68F61AE5E76F5D00001891FF1F73
:103E380010B50446FFF79EFF14B90C48FFF7DAFEE9
:103E4800E36813B90948FFF7D5FE2368A1689A68A3
:103E58000A449A606268136023685A600023E3602A
:103E6800034B4FF0FF325A6210BD00BF7A5D00006D
:103E78001891FF1F034B0022C3E90033C3E9043341
:103E88009A6070471891FF1F10B50446FFF772FF3C
:103E980014B90D48FFF7AEFE94F820300BB10F2B84
:103EA80002D10948FFF7A6FE002384F82030A26853
:103EB800064B1B6899689142FBD25A68236062607E
:103EC800204614605C6010BD965D00001891FF1FCD
:103ED80038B50446202383F31188FFF7F7FE94F8DA
:103EE80020300025072B0CD8DFE803F0040B0B0962
:103EF8001D170B1DFFF7FCFE85F3118838BD636A9B
:103F08001D604FF0FF3363622046FFF7BDFFFFF7E8
:103F1800EFFE002383F31188F0E7656AFFF72AFFB5
:103F2800AB680133AB60D4E9003213605A60E8E74C
:103F380010B50446FFF71EFF14B90D48FFF75AFEE7
:103F480094F820300BB10F2B02D10948FFF752FE2D
:103F5800002384F82030A268064B1B6899689142B8
:103F6800FBD85A6823606260204614605C6010BD0C
:103F7800A25D00001891FF1F70B5104CA569064698
:103F8800FFF708FF142385F82330236885F820609D
:103F98001A68226054600122A36183F82020EFF39D
:103FA8000983EA69243B9A4202D90548FFF722FEB1
:103FB800A0692946BDE87040FCF7BABA1891FF1FFE
:103FC800875D000070B50D4686B00446FFF7E2FE37
:103FD8006B1C0D4E13D0B3690C4A294601A8FFF794
:103FE800F5FE2046FFF7C8FFFFF7C4FE049B13B198
:103FF80001A8FFF71DFFB369586A06B070BD2046D7
:10400800FFF7BAFFF7E700BF1891FF1FD93E00007E
:104018002DE9F041194E0446D6F818800F46FFF7EF
:10402800B9FE3368B34207D0B2699B6892689A4276
:1040380002D21348FFF7DEFDA268D8F8083067629D
:104048009A4204D82046BDE8F041FFF71DBF40461C
:10405800FFF76EFF01230546B46184F82030EFF3C3
:104068000983C269243B9A4202D90648FFF7C2FD78
:1040780029462046BDE8F041FCF75ABA1891FF1FBF
:10408800B35D0000875D0000084B1A6890689A6964
:10409800936892F8232022B1984294BF002001200F
:1040A8007047984234BF0020012070471891FF1FC5
:1040B80038B50E4C2368A0691A6822605460012242
:1040C80083F82020A361FFF733FF0546EFF3098348
:1040D800C269243B9A4202D90548FFF78BFDA069C3
:1040E8002946BDE83840FCF723BA00BF1891FF1FE6
:1040F800875D000008B5FFF74DFEFFF73BFE064B56
:104108001A689B6992689B689A4203D9BDE808407F
:10411800FFF7CEBF08BD00BF1891FF1F38B5134D7C
:104128002A68A869116829604D600121AA6182F88E
:10413800201092F82320A2B9FFF7A6FE1423044604
:1041480080F82330EFF30983E269243B9A4202D9CD
:104158000748FFF74FFDA8692146BDE83840FCF73E
:10416800E7B9FFF7E5FE0446ECE700BF1891FF1F2B
:10417800875D0000202383F31188FFF783BD0000CB
:1041880008B5FFF791FD084B1A689A4207D09B695A
:1041980099689368994202D20448FFF72BFD0023DF
:1041A80083F3118808BD00BF1891FF1FC05D000090
:1041B80010B5044610B90448FFF71CFD2146082035
:1041C800BDE81040FFF7FEBECC5D00008260C26310
:1041D8000022C0E90D22084A0262084A8161516939
:1041E800026141610861506100F12802826200F1B8
:1041F8002C02C0E90B227047020001141891FF1F1E
:1042080010B50446FFF7B6FD14B91848FFF7F2FCDD
:104218006268500707D1A368590704D19A4202D2AD
:104228009B1AC72B02D81148FFF7E4FCE368FF2B61
:1042380001D8236913B90D48FFF7DCFCD4E9013034
:1042480040F82C3CA0F16C0340F83C3C236940F852
:104258006C3C636940F8683C054BE268216840F8AB
:104268004C3CBDE810404838FFF7B0BFD85D0000AF
:104278004905000010B50446406800F00DF910B17A
:104288000B48FFF7B7FCD4E9013255219A420CD804
:10429800FFF770FF2046FFF7B3FF00210446FFF742
:1042A800B7FEFFF76DFF204610BD03F8011BEDE7D1
:1042B800EE5D000010B50446FFF75CFF94F822306D
:1042C80013B91648FFF796FC94F82230013B84F89E
:1042D8002230236A03F0FF130F2B1AD1D4E90423E9
:1042E8001A6122695361FFF74BFF94F8213003F0FC
:1042F8000303012B02D0022B05D010BDE069BDE8F5
:104308001040FFF721BBE169206CBDE81040FFF7C2
:10431800B9BBBDE81040FFF733BF00BFFA5D00002E
:1043280038B5104B9C69606204F12805A06AA84260
:1043380012D194F822303BB994F821309B0702BF80
:10434800D4E9043213615A610F20FFF715FEBDE866
:1043580038400548FFF74EBC0368A362FFF794FD99
:10436800E4E700BF1891FF1F075E000010B5044680
:10437800FFF700FF2046BDE81040FFF7D1BF10B59A
:104388000446FFF7F7FE2046FFF712FFBDE810408E
:10439800FFF7F6BE0A4B70B59E69036804460D46E2
:1043A80013B10848FFF726FC3DB126602946746220
:1043B8000320BDE87040FFF705BE4FF0FF3070BD29
:1043C8001891FF1F125E000070B5046805460E467E
:1043D80074B194F82030032B02D00648FFF70AFC8A
:1043E80000232B6020466662BDE87040FFF74CBD95
:1043F80070BD00BF275E000008B5FFF755FC084BED
:104408001A689A4207D09B6999689368994202D2C0
:104418000448FFF7EFFB002383F3118808BD00BFB2
:104428001891FF1F345E000010B5202383F3118814
:10443800FFF728FC054B1C6994F82230013384F8F7
:104448002230FFF7D9FF204610BD00BF1891FF1F8B
:1044580038B50546202383F31188FFF713FC2C6930
:104468000B4B9C4212D094F82230FF2B02D1094802
:10447800FFF7C0FB94F82230013384F82230FFF7AD
:10448800BBFF2846FFF716FF204638BD0024F6E795
:104498001891FF1F405E000010B50446FFF7C4FFE7
:1044A800C3699C4203D0FFF7D3FF0028F8D110BDA1
:1044B80010B50B461B68994203D09C6882689442E9
:1044C800F8D25A68036042601060586010BD00005E
:1044D80008B5FFF7E9FB084B1A689A4207D09B69B1
:1044E80099689368994202D20448FFF783FB002336
:1044F80083F3118808BD00BF1891FF1F665E000096
:1045080010B5044610B90448FFF774FB0023C4E94A
:104518000044A36010BD00BF725E000038B5264B92
:1045280004469D69FFF736FC14B92448FFF762FB7F
:10453800A06868B9AB6BA560E360AC6338BDD0E92F
:104548000032416A13605A60FFF7B2FF436A986805
:10455800AB6882689A4218D2836090F82030062BA4
:10456800EDD0072B0AD083B9012380F82030D0E999
:10457800003213605A60FFF787FC06E0D0E900328A
:10458800416A13605A60FFF793FF21462846FFF7F8
:104598008FFF6C620620FFF7EFFCA368AB4202D0E6
:1045A8000648FFF727FBAB6BA342C7D0BDE83840EE
:1045B8000248FFF71FBB00BF1891FF1F825E000073
:1045C80010B52023044683F31188FFF75BFB2046D0
:1045D800FFF7A4FFBDE81040FFF77ABFF8B5234BFB
:1045E80004469D6910B92248FFF704FB202383F392
:1045F8001188FFF747FBAB6B13B91D48FFF7FAFAB1
:10460800AB6B9B68AB4202D01948FFF7F3FAAB6B70
:10461800A34202D01648FFF7EDFAE368AB63FFF751
:10462800B9FB23689C421ED0D5E90E6786B920687D
:10463800AF60036823605C60836BE360A0608463A1
:10464800FFF722FCFFF756FDBDE8F840FFF740BF33
:10465800FFF7A0FB33689E4203D09B689F4238BF98
:104668001F46F668E2E70023A360EDE71891FF1FF5
:104678008D5E0000EFF30983203383F3098800235C
:1046880083F311887047000010B5202383F3118845
:104698000D4B5B6813F4006312D0EFF309844FF0FD
:1046A800807344F8043CA4F1200383F30988FFF7DE
:1046B800EBFC18B1054B44F8083C10BD044BFAE775
:1046C80083F31188F9E700BF00ED00E05D05000005
:1046D8006805000008B500F0E9FB054800F026FD74
:1046E80000F03FF8FFF74EF8BDE8084000F002B8C8
:1046F800145F000000F066BC08B5FFF7D5FA084B58
:104708001A689A4207D09B6999689368994202D2BD
:104718000448FFF76FFA002383F3118808BD00BF30
:104728001891FF1F995E0000202383F31188FFF77B
:10473800CDBA08B5FFF7DCFA002383F3118808BD6A
:1047480010B5044690F8D63080F8DE3000F038FE18
:1047580063681B6813B1012120469847032323701F
:1047680010BD00F09BBD012303700023436000F1DE
:104778004C0200F1880142F8043B8A429363FAD163
:104788008360704738B50D46044600B111B9114829
:10479800FFF730FA202383F31188FFF773FA2378A1
:1047A800013B012B02D90B48FFF724FA656004F19D
:1047B8000C0304F14C02002143F8041B9A42FBD17C
:1047C800204600F07FFD02232370BDE83840FFF744
:1047D80093BF00BFA55E0000F8B504460E46154617
:1047E800FFF7C8FA04B115B91148FFF703FA23789F
:1047F800042B02D00E48FFF7FDF904EB8607FB688F
:1048080013B10B48FFF7F6F96869FD6018B1142277
:10481800002101F01FF8A86918B11422002101F045
:1048280019F831462046BDE8F84000F0D3BD00BF76
:10483800AE5E0000F8B50446FFF79CFA14B91748B5
:10484800FFF7D8F92378042B02D01448FFF7D2F9E0
:10485800A36803F00113A36004F1100504F14C06EA
:10486800002755F8043B7BB1586920B16FF001016E
:104878000C30FFF7A9FD55F8043C986920B16FF09A
:1048880001010C30FFF7A0FDB54245F8047CE8D1E2
:104898002046BDE8F84000F0A3BD00BFBF5E0000A1
:1048A8002DE9F04104460E4690461F46FFF762FA8E
:1048B8000CB10F2E02D90F48FFF79CF90125638927
:1048C800B540ADB21D4202D00A48FFF793F963899B
:1048D8001D4304EB86030022DB6865819B69314632
:1048E800C3F808801F6020465A60BDE8F041DA60CE
:1048F80000F0DCBDD45E00002DE9F04104460E4610
:1049080090461F46FFF736FA0CB10F2E02D90F4812
:10491800FFF770F901252389B540ADB21D4202D0D9
:104928000A48FFF767F923891D4304EB8603002231
:10493800DB6825815B693146C3F808801F60204623
:104948005A60BDE8F041DA6000F032BFE55E000071
:1049580010B50378052B0FD1084C94F8943043F028
:10496800040384F894300220FFF709FD94F894308A
:1049780003F0FB0384F8943010BD00BF002007400B
:104988002DE9F0410223002604460370C0F8DC60DC
:10499800866000F10C0500F14C0755F8043BABB1FB
:1049A800FFF7C2FE55F8043C586920B16FF00101C9
:1049B8000C30FFF709FD55F8043C986920B16FF0F9
:1049C80001010C30FFF700FDFFF7B3FEBD4245F8CB
:1049D800046CE2D184F8C460204600F0CBFC636824
:1049E8001B6823B120460021BDE8F0411847BDE807
:1049F800F08138B5037880F8E03005230370436808
:104A08001B6804460BB10421984704F10C054C348B
:104A180055F8043BABB1FFF787FE55F8043C5869DD
:104A280020B16FF001010C30FFF7CEFC55F8043CC3
:104A3800986920B16FF001010C30FFF7C5FCFFF752
:104A480078FEA542E4D138BD90F8E02043680270B2
:104A58001B680BB1052118477047000070B590F826
:104A6800C430044613B1002380F8C43004F1D402E2
:104A7800204600F0EFFC63689B68B3B994F8D43023
:104A880013F060053AD00021204600F0BFFE002157
:104A9800204600F0AFFE63681B6813B1062120466C
:104AA8009847062384F8C43070BD204698470028EC
:104AB800E4D094F8DB2094F8DA3043EA0223D4F8FF
:104AC800CC209A4288BFC4F8CC3094F9D430D4F8BA
:104AD800CC50002B80F2FB80002D00F0EC800923E5
:104AE80084F8C430FFF720FED4E9322300212046A1
:104AF800FFF702FFBDE87040FFF71BBE94F8D52012
:104B080003F07F0343EA022340F20232934200F0AB
:104B1800BF8024D8B3F5807F54D010D8012B49D05A
:104B2800022B00F08D80002BADD104F1DC02C4F81B
:104B3800C8200222C4F8CC20C4F8D030B9E7B3F5B5
:104B4800817F00F09280B3F5407F9CD194F8D630F5
:104B5800012B98D1B4F8DC3043F002033BE0B3F505
:104B6800006F43D01ED8B3F5A06F3BD0A3F5C06348
:104B7800012B88D894F8D920616894F8D8304E6809
:104B880094F8D71043EA0223204694F8D620B04779
:104B980000283FF478AF4368C4F8C8300368C4F805
:104BA800CC301CE0B3F5106F26D040F60242934299
:104BB8007FF469AF4E4BC4F8C8300223C4F8CC3038
:104BC8000023B9E794F8D630012B7FF45CAFB4F832
:104BD800DC3023F00203C4E93255A4F8DC30C4F811
:104BE800D05066E7C4E93255424BA5E704F1DF032C
:104BF800C4F8C8300123D2E72378042B0FD1FFF77C
:104C080093FD2046FFF716FEFFF793FD636884F8CF
:104C1800DF50032121701B680BB12046984794F898
:104C2800D6304BB184F8DF300423237063681B68E7
:104C380013B10221204698470023C4E932337BE7A9
:104C480094F8D8301D0603F00F0120460AD500F06D
:104C5800EBFB012804D002287FF415AF264BAAE706
:104C6800264BA8E700F0CAFBF3E794F8D630002BF0
:104C78007FF409AF94F8D83013F00F01DCD01A068E
:104C8800204602D500F0DAFDD6E700F0CBFDD3E7E9
:104C980094F8D630002B7FF4F6AE94F8D83013F0A1
:104CA8000F01C9D01B06204602D500F0AFFDC3E7AF
:104CB80000F0A0FDC0E7142384F8C430FFF734FDEA
:104CC8002B462A4600212046FFF7EAFD12E73DB1B0
:104CD800152384F8C430FFF727FDD4E93223F1E720
:104CE8000B2384F8C430FFF71FFD2B462A46FDE648
:104CF800125F0000494700000E5F0000105F0000CF
:104D080038B590F8C4300446002B43D0063BDAB2DD
:104D18000F2A52D80F2B50D8DFE803F03F4F4F0827
:104D280027364F4F4F4F4F4F4F4F3C3C90F8DB10BB
:104D380090F8DA20D0F8CC3042EA0122934214D21B
:104D4800C268128AB3FBF2F502FB15356DB9FFF79D
:104D5800EBFC2B462A4629462046FFF7CDFDFFF7F8
:104D6800E8FC0A2384F8C43038BD142384F8C4301E
:104D7800FFF7DAFC00231A4619462046FFF790FD94
:104D8800BDE83840FFF7D5BCD0F8D03003B198471C
:104D98000023E7E70B48FEF72DFF0021204600F02F
:104DA80035FD0021204600F025FD63681B6813B11E
:104DB8000621204698470623D4E7BDE83840014835
:104DC800FEF718BFF75E000010B590F8C430142B3A
:104DD800044630D01ED8062B0CD005D83BB1BDE810
:104DE80010401B48FEF706BF093B022BF7D81848AE
:104DF800FEF700FF0021204600F008FD00212046B4
:104E080000F0F8FC63681B6813B106212046984738
:104E1800062319E0152BE2D10B2380F8C430FFF7E5
:104E280083FC002320461A461946FFF765FDBDE8B6
:104E38001040FFF77EBCC3689B695B6833B9D0F844
:104E4800D03003B19847002384F8C43010BD00BFA8
:104E5800025F000000F02CB8704700F1604303F5D2
:104E680061430901C9B283F80013012200F01F034E
:104E78009A4043099B0003F1604303F56143C3F87B
:104E880080211A60704700000B2838B504460D468B
:104E980002D90548FEF7AEFE04F160402D0100F589
:104EA8006D40EDB2057638BDA8610000704700007E
:104EB800334A34494CF2205330B5D3814DF6281388
:104EC800D3811388304D23F001031B041B0C13807E
:104ED80041F2380289B08B5843F478538B500FCD88
:104EE8006C460FC495E80F0084E80F00274A00239A
:104EF8009364D36402F5E0320A211170A2F580525E
:104F0800A42151706A4652F8041BB1F5007F03D002
:104F18000133082BF7D10723DB001D4A63F07F0319
:104F2800DBB2137013469A799107FCD59A79D206A9
:104F3800FCD4174B19469A7902F00C02082AFAD1C8
:104F480007221A7158225A718B7903F06003602B7B
:104F5800FAD10C4B0F4841F244024FF48034985078
:104F680041F2480000221A5041F204001C500A7015
:104F7800074A937903F00C030C2BFAD109B030BD22
:104F88000020054000700440845800000090044050
:104F9800004006400000031108B5FEF7BBFE2023C1
:104FA80083F31188FEF792FEFEF72AFEFEF7A0FEB5
:104FB800002383F31188FEF7C5FEBDE80840FFF71C
:104FC80063BB0000054B4BF67F325A6000229A60A3
:104FD80007221A6008210B20FFF756BF10E000E0F7
:104FE8000069C84000F00100704700001F2970B533
:104FF80005460C46164602D94348FEF7FBFD012339
:10500800062E6A69414903FA04F30CD113438D4211
:105018006B6174D13E4B4FF4807253E03D4B9D421F
:1050280008D13D4B13E022EA03038D426B61F5D1B1
:10503800374B0CE0394B9D423CD040339D423BD02E
:1050480040339D423AD03048FEF7D4FD0023162E57
:105058003AD801A252F826F01F500000DF50000095
:105068001F500000D3500000D9500000DF5000004E
:105078001F500000C9500000D1500000D15000005E
:10508800D1500000D1500000D1500000D150000094
:10509800D1500000D15000001F500000E350000024
:1050A800E9500000EF500000F5500000FB500000F0
:1050B800015100001A4BCAE71A4BC8E71A4BC6E75A
:1050C8004FF4907243F8242070BD40F20312F9E7C0
:1050D8004FF48172F6E70022F4E74FF40072F1E72B
:1050E8004FF44072EEE74FF48062EBE74FF4A062B2
:1050F800E8E74FF4C062E5E74FF4E062E2E7054B0A
:105108009D4297D1044B86E7C561000000F00F402F
:105118000090044040F00F4000A0044080F00F4091
:1051280000B0044000C0044000D004400D4941F2E2
:105138003802F8B58B5843F478538B50051D00F5A9
:1051480026742F460026F1B257F8042B55F8040CA4
:105158000136FFF74BFF202EF5D18435A542F0D15B
:10516800F8BD00BF00700440064B1A783F2A07D8E4
:10517800197805484A1CD2B21A7000EB81107047A2
:10518800FEE700BFC09AFF1F0096FF1F00EB8100DB
:105198002DE9F047C668B4690D46F4B1708A274F07
:1051A800002363828C00030443F0880347F83430FB
:1051B800C0B2FFF7D9FF07EB451344F0010458606C
:1051C800708A030443F0C80347F83430C0B2FFF7CD
:1051D800CBFF07EBC404606008247369EBB14FEAA6
:1051E8008508164F307C48F002094FF0000AA3F8F2
:1051F80010A047F839A0FFF7B7FF07EBC90948F037
:105208000308C9F8040047F838A0307CFFF7ACFF62
:1052180007EBC80744F004047860336803F003031D
:10522800012B02D044F001040BB144F01004044BEC
:10523800303503F82540BDE8F08700BF0094FF1F14
:105248000020074000EB8100F0B5C56868692B8A2B
:10525800047C44EA8101104C9A4241F0020128BFC3
:105268001A4604EBC105002393420FD1427C1B046C
:1052780043EA821343F0880344F83130037C82F018
:10528800010283F0010342740374F0BD8668F75C81
:105298006E68F7540133E7E70094FF1F08B5074825
:1052A800FFF761FA064B41F204015A5842F4802292
:1052B8005A5041F248020221995008BD9491FF1FAB
:1052C8000070044010B40378012B48D1254B984254
:1052D80045D12549002318460A4641F8330001EB19
:1052E800C3040133102B6060F7D141F234011F4829
:1052F800435843F4802343501D4B93F80C1141F05D
:10530800800183F80C1193F80C110906FBD4C2F341
:10531800072183F89C10C2F30741120E83F8B010DE
:1053280083F8B420FF2283F8802083F888201A7439
:1053380093F80C2142F0400283F80C21032283F8F1
:105348009420002283F8002193F8842042F001027F
:1053580083F8842010BC05214920FFF77EBD10BCCE
:10536800704700BF9491FF1F0094FF1F0070044016
:10537800002007400F4B70B50F4C00251D7002230D
:1053880084F894300D4BC36006462946FFF7FEFEAD
:10539800FF2384F8883084F8803086F8DE5084F85B
:1053A800985084F88C309F2384F88430012384F843
:1053B800943070BDC09AFF1F00200740DC610000D8
:1053C80090F8DE30024A03F07F0382F89830704785
:1053D80000200740102901D8FFF7D8BE7047000009
:1053E800054A0123002003F130010133102B02F894
:1053F8002100F8D1704700BF002007400F2911D8BD
:10540800890001F1804101F5E42191F8C00010F014
:10541800080008D091F8C03013F0020F0CBF02202A
:1054280001207047002070470F2911D8890001F129
:10543800804101F5E42191F8C00010F0040008D083
:1054480091F8C03013F0020F0CBF02200120704702
:105458000020704700EB8100F0B5C368124D9C69CD
:10546800A37C8E0043EA810105EBC10C0023DCF824
:105478000470FF5CD7540133082BF8D1C068438A05
:105488001B0443F0880245F83120E27C3AB1A27C43
:1054980082F00102324343F0C80345F832304269D2
:1054A80001235374E374F0BD0094FF1F00EB8100E7
:1054B800C36899690A683AB1588A1318013BB3FB63
:1054C800F0F39BB20B8270470123FBE700EB8103EB
:1054D8002DE9F041DE68DFF850C0B469738AA57C15
:1054E8009A4245EA810528BF1A460CEBC50E0023EF
:1054F80093420FD1E27C768A930143EA064343F054
:10550800880382F001024CF83530E274BDE8F041BE
:10551800FFF7CCBFDEF8047017F80380A76807F818
:1055280003800133E4E700BF0094FF1F2DE9F04733
:105538009C4C94F88050EDB2FEF7ECFB6F0707D552
:1055480099484368DB6803B19847042384F880309E
:10555800944F954C2E070FD4EC0740F1ED809248FC
:10556800FFF70EFA8F4B012283F88020FEF7EAFB43
:10557800BDE8F047FFF788B897F890301E0906F1A4
:10558800020804EB8802C3F38005C3F3C00145EAAF
:105598008605D2F8049045EA41059A0829B9D9F850
:1055A800181011B102F001038B74DFF800A25AF849
:1055B8003520C2F38303092B62D00D2B4AD0012B6F
:1055C80057D1D9F81830002B53D0C2F309452023FE
:1055D80083F31188FEF77AFB2A4631462046FFF707
:1055E80075FFFEF785FB002383F31188002D40D05B
:1055F800D9F818309A682A449A605A682A445A6036
:105608001A68521B1A601A8A013A92B21A82B9F8B9
:105618001230AB4200D862BBD9F80C304BB301232F
:1056280003FA06F2638923EA0203638104EB880321
:105638005B68DB6813B1314620469847202383F323
:10564800118804EB8808FEF741FBD8F80430986904
:1056580041686DE0638923F0010363813146D9F81D
:1056680004302046984797F8943003F0DF0387F812
:105678009430082387F8803097F88050EDB269E7B6
:10568800D9F81430002BF4D08EB9B4F8D430052BE7
:105698000DD194F8D63084F8DE302046FFF790FE1E
:1056A80063681B680BB10121984703232370D9F85D
:1056B80014305AF8352058681968C2F30942104462
:1056C8008842586016D299680A449A60202383F366
:1056D8001188FEF7FBFAD9F81430D3E900233146D4
:1056E800D21A2046FFF7AEFDFEF702FB002383F334
:1056F8001188BEE7D9F80830002BBAD0012303FA85
:1057080006F2238923EA0203238104EB88035B68FA
:105718009B6813B1314620469847202383F31188AC
:1057280004EB8808FEF7D2FAD8F80430586900214B
:105738000C30FEF749FED7E7280642BF194B8022F6
:1057480083F88020A90708D5164B93F88820D2B291
:1057580083F88820022283F88020EA0610D51248B0
:105768000378042B08D1FFF744F90E4A92F88430E5
:1057780043F0200382F884300A4B102283F88020FB
:10578800AB067FF5F3AE074C074894F8843003F076
:10579800DF0384F88430FFF757F9202384F880303A
:1057A800E4E600BF002007409491FF1F0094FF1F0C
:1057B80070B4A1B990F8C4300B2B10D1C3680C4D4C
:1057C8009C695B8AA27CE1741B0443F0C80645F817
:1057D800326082F0010243F0880345F8323000EB72
:1057E800810370BCDB685B691A68FFF72BBD00BFDB
:1057F8000094FF1F890001F1804101F5E42191F82F
:10580800C03043F0020381F8C0307047890001F1CD
:10581800804101F5E42191F8C03043F0020381F89A
:10582800C0307047890001F1804101F5E42191F809
:10583800C03003F0FD0381F8C0307047890001F1E2
:10584800804101F5E42191F8C03003F0FD0381F8AF
:10585800C030704702440346934200D1704703F8B2
:04586800011BF9E740
:04586C00F8B500BFCC
:04587000F8B500BFC8
:105874006FF07F030370037813F0800FFBD0704741
:105884002000000040000000800000000001000033
:1058940000020000000400000005000000060000F3
:1058A4000000290000003A003B003C003D000000DD
:1058B4003E003F004000410000004200430044001D
:1058C4004500005CAC0035001E001F0020002100D4
:1058D40022000000230024002500260027002D00BC
:1058E4002E0000002A004900AE002B000000140026
:1058F4001A000800150017001C00180000000C0016
:10590400120013002F00300031004C00AB003900AE
:10591400000004001600070009000A000B000D0037
:1059240000000E000F0033003400000028004A007D
:105934000000E10000001D0000001B00060019002B
:1059440005001100100036003700380000002C005C
:1059540052004D000000E000E3000000E2000000FF
:10596400000000002C000000000000002C002C00AF
:105974002C00500051004F00E200E900EA00B5009D
:10598400B600B700CD008301CC008A0192019401D6
:105994002102230224022502260227022A02B3003E
:1059A400B4006F007000000080F04F40C0F03F4032
:1059B400C0F02F40C0F04F4000F0DF4040F01F41E6
:1059C400C0F07F4080F0AF4080F05F40C0F01F40E7
:1059D40080F00F4040F00F4040F01F4040F03F4047
:1059E40040F02F40C0F05F40C0F06F4000F10F4026
:1059F40080F02F4080F01F4080F03F40C0F00F4007
:105A040080F07F4040F00F41E200E900EA00B50079
:105A1400B600B700CD008301CC008A019201940145
:105A24002102230224022502260227022A02B300AD
:105A3400B4006F0070006368537973556E6C6F63C4
:105A44006B00010203040506070809006368537923
:105A540073556E6C6F636B00030000000000000060
:105A6400A532000000000000080000006C8FFF1F3A
:105A7400000000000200000000000000030000001D
:105A8400000000003D330000000000002000000082
:105A9400BC8FFF1F00000000020000000000000097
:105AA40005340000B53200004D3400006D330000B1
:105AB400555B0000595B00006D5B0000795B0000E2
:105AC40004120A0409023B00020100A0FA090400BE
:105AD4000001030101000921110100012240000716
:105AE40005810308000A09040100010300000009FC
:105AF400211101000122BC000705820320000A12C3
:105B040001100100000040EDFE000001000102034D
:105B14000105010906A101050719E029E71500257A
:105B24000195087501810295017508810105071920
:105B34000029FF150026FF00950675088100050859
:105B440019012905950575019102950175039101C6
:105B5400C00403090412034D00610064007200696B
:105B64000063006B00330000000A03330064007715
:105B7400006600000004033000000005010902A1D2
:105B84000185020901A1000509190129051500254E
:105B940001950575018102950175038101050109CE
:105BA4003009311581257F9502750881060938155C
:105BB40081257F950175088106050C0A3802158137
:105BC400257F950175088106C0C005010980A101E2
:105BD400850319012AB700150126B7009501751030
:105BE4008100C0050C0901A101850419012AA00244
:105BF400150126A002950175108100C00501090652
:105C0400A1018505050719E029E715002501950877
:105C1400750181020507190029EF1500250195F08A
:105C2400750181020508190129059505750191027F
:105C3400950175039101C06368537973556E6C6F58
:105C4400636B006368436F7265416C6C6F63416C96
:105C540069676E6564576974684F666673657449ED
:105C640000636848656170467265650063685379CE
:105C740073556E6C6F636B006368506F6F6C4F622B
:105C84006A656374496E6974416C69676E65640022
:105C94006368506F6F6C4672656549002C62000042
:105CA400F49AFF1FF49AFF1FF49AFF1F2C6200005E
:105CB4000000000000000000000000002C62000052
:105CC4000000000000000000000000002C62000042
:105CD4000000000000000000000000002C62000032
:105CE4000000000000000000000000002C62000022
:105CF4000000000000000000000000002C62000012
:105D04000000000000000000000000002C62000001
